:0300000002086093
:0C086000787FE4F6D8FD7581640208A7DB
:08000300120C53120B6980FB83
:10031D008F53209003020400EF700F1204E9E508DB
:10032D007005750801F52C020410AF537E00EF64C3
:10033D0003700302042DEF64084E7003020421EFD5
:10034D00640D4E7003020445EF64124E70030204F7
:10035D0039EF64184E7003020451EF641A4E703376
:10036D00E52B60030204E8750801752B010511E505
:10037D00117002051030E012750901E4F512F51344
:10038D00F526F527752C30C29722E4F509752C3129
:10039D00C29722EF641F4E7033E52860030204E814
:1003AD00750801752801050BE50B7002050A30E093
:1003BD0012E4F524F525F50CF50D752A01752C4182
:1003CD00D2A322E4F52A752C42C2A322EF64164E65
:1003DD0060030204E8E52960030204E8750801756D
:1003ED002901050FE50F7002050E30E0030204E14F
:1003FD000204E5E55370141204E9E508700575086B
:10040D0001F52CE4F52BF528F52922AF537E00EFED
:10041D0064037006F508752C0322EF64084E700610
:10042D00F508752C0222EF640D4E7006F508752C3B
:10043D000422EF64124E7006F508752C0122EF644C
:10044D00184E7006F508752C2022EF641A4E703385
:10045D00E52860030204E8750801752801050BE520
:10046D000B7002050A30E012E4F524F525F50CF5C4
:10047D000D752A01752C41D29722E4F52A752C426F
:10048D00C29722EF641F4E7030E52B704E75080138
:10049D00752B010511E5117002051030E01275097B
:1004AD0001E4F512F513F526F527752C30C2A322BC
:1004BD00E4F509752C31C2A322EF64164E701CE5CC
:1004CD00297018750801752901050FE50F700205D2
:0C04DD000E30E004752C2122752C222228
:100C5300120D24120B367F807E251209B27F0312F8
:100C63000AC5120D3E120CEE7BFF7A03791D120D9D
:070C73000E43CF40D2AF2277
:100B690043CF40120CD77B007A007914120B99EC11
:100B79004D4E4F601A7B007A0079147F287E007DE4
:100B8900007C00120CA1AB2C7D557FFF120BC922F2
:03000B0002078564
:10078500C0E0C0F0C083C082C0D075D000C000C03A
:1007950001C002C003C004C005C006C007758A9029
:1007A500758CE8120CBDE50960080527E527700280
:1007B5000526D3E52794E8E5269403400E75260023
:1007C5007527000513E51370020512E52A60080573
:1007D50025E52570020524D3E52594E8E524940351
:1007E500400E752400752500050DE50D7002050CFC
:1007F500D3E50D943CE50C9400401D75240075254A
:1008050000750C00750D00752A00750801752C42E0
:10081500C297750A00750B00D3E5139478E5129419
:1008250000401D75120075130075260075270075AB
:100835000900750801752C31C2A3751000751100EA
:10084500D007D006D005D004D003D002D001D00007
:0B085500D0D0D082D083D0F0D0E032B1
:03001B00020021BF
:0100210032AC
:03002B0002001EB2
:03001E00C2CF321C
:100A8800EFFD7C00D394037480948040037F01229F
:100A9800ED4C700843918053927FFF22EFFD7C005C
:100AA800640170084391015392FEFF22ED64024CE9
:0D0AB800700843A10853A2F7FF227F01221E
:070D370012002EFF020A88E2
:020AC5008F534D
:100AC700D3EF94037480948040037F0122E4F55DA3
:100AD700E55DC395535016745E255DF8A65D745E9B
:100AE700255DF9E4FAFB120D37055D80E3E55D65E9
:080AF7005360037F01227F0020
:010AFF0022D4
:100B3600758E07438901758A90758CE8C28CD2A997
:100B4600D28C438920758B10758D10C28ED2ABD294
:100B56008EE4F5C9F5C875CB4475CA80C2CAD2AD54
:030B6600D2CA22CE
:1009B20075985043878053C8CF438E0253890F43A3
:1009C2008920AB07AA06E4F9F8FF7E1B7DB7FC126B
:1009D2000A44E47B10FAF9F8120A44E47B02FAF9B9
:1009E200F8120A44E47B02FAF9F8120074EFF404F4
:0909F200F58DC28ED28ED2AC222A
:0A0D1A008F99E54E60FCE4F54E22CF
:060BF8008B5A8A5B895C48
:100BFE00E4F543C3E5439404748094805017AB5AD4
:100C0E00AA5BA95C854382758300120047FF120D13
:070C1E001A054380DE7F0090
:010C250022AC
:060BC9008F538D548B5583
:100BCF007E007F047D007B007A00795612019585A7
:100BDF005356855457855558E55625572558F55979
:090BEF007B007A007956020BF834
:0C000E00E55260FCE4F552859944AF44D3
:01001A0022C3
:0E0D0000E55030E7067550007F01227F00228B
:1009FB0012000E8F4FE5505480703DE55030E609E4
:100A0B00EF64FB703043508022E5506405700BE5BA
:100A1B004FB5510443504022801B74452550F8A616
:100A2B004F0550E5452546254725482549F551E510
:090A3B004564A56003755000221A
:1004E900120D00EF7003020647E548FEE5498E4C00
:1004F900F54D7E007F077D007B007A00794512016A
:1005090095E54D854CF012016205660100056B0108
:10051900010570010205890104058E010505930194
:100529000605980107059D010805A2010905A7010E
:100539000A0575010B057A010C057F010D0584017A
:100549000E05B1020005AC02010625030005FD03F5
:100559000105B8040105E0040200000642E4F52C97
:100569008049752C048044752C01803F752C0280CC
:100579003A752C038035752C068030752C07802B35
:10058900752C208026752C058021752C08801C75FA
:100599002C0A8017752C138012752C14800D752C5C
:1005A900158008752C218003752C2275080122E419
:1005B900309012F524F525F50CF50D752A01752CE9
:1005C90041D2A38026F524F525F50CF50D752A01F0
:1005D900752C41D2978014E4309009F52A752C4284
:1005E900C2A38007F52A752C42C297750801F50A3E
:1005F900750B0122E4309012F526F527F512F51353
:10060900750901752C30D2978026F526F527F51244
:10061900F513750901752C30D2A38014E4309009C3
:10062900F509752C31C2978007F509752C31C2A3DC
:0F063900750801F51075110122E4F508F52C2262
:03002300020C7A52
:100C7A00C0E0C0D075D000C000C007309905C29945
:100C8A00754E01309808C2987552011209FBD007B7
:070C9A00D000D0D0D0E03201
:100B0000013AFF6028000000000000000102030419
:100B100005060708090A0B0C0D0E0F10111213140D
:0F0B200015161718191A1B1C1D1E1F2021222322
:1008EC00E4F554F5557F0112095DEF70050555755A
:1008FC0054017F0212095DEF700505557554027F96
:10090C000312095DEF700505557554037F04120938
:10091C005DEF700505557554047F0512095DEF7088
:10092C000505557554057F0612095DEF70050555D3
:10093C007554067F0712095DEF7005055575540750
:10094C00D3E55594017480948040037554FFAF54E3
:01095C002278
:100CEE00120C26E4F535FB7A00793BFFFEFDFC0283
:020CFE000CA147
:100648007B007A00793B120B99EC4D4E4F70037F7B
:10065800FF227B007A00793B7F147E007D007C00BE
:10066800120CA11208EC8F53EFF470037FFF22E500
:100678003514603014606C1470030207352403606D
:100688000302077FE5537002FF2285533A7B007A05
:1006980000792D7F147E007D007C00120CA1753539
:1006A80001020782E53A6553600302077F7B007AFF
:1006B80000792D120B99EC4D4E4F70030207827B87
:1006C800007A00792D7F907E017D007C00120CA1BC
:1006D800753502E53A75F005A42400F582E4340086
:1006E80002077AE53A65536012E4F535E53A75F0A4
:1006F80005A42401F582E4340080777B007A007930
:100708002D120B99EC4D4E4F60707B007A00792DBD
:100718007FD07E077D007C00120CA1753503E53A79
:1007280075F005A42402F582E434008045E53A65B5
:10073800536012E4F535E53A75F005A42404F58212
:10074800E43400802D7B007A00792D120B99EC4D52
:100758004E4F60267B007A00792D7FD07E077D0082
:100768007C00120CA1E53A75F005A42403F582E497
:0C0778003400F583E0FF22E4F5357FFF3C
:010784002252
:0C0D0E00EA494B60068B378A388939228D
:100CD7001206488F36E53845394537600985398228
:070CE70085388312019322FE
:10095D00EFFD7C0064017005A28033FF22ED64027F
:10096D004C7005A2A133FF22EFFD7C0064037005DE
:10097D00A28333FF22ED64044C7005A28233FF2263
:10098D00EFFD7C0064057005A2A033FF22ED640627
:10099D004C7005A28133FF22EF64077005A2A233CC
:0509AD00FF227FFF2284
:100C2600539AFE439B01539AFD439B02539AFB43FF
:100C36009B04539AF7439B0853A1FE43A20153A179
:0D0C4600FD43A20253A1FB43A2047F012243
:070D3E005391FE43920122D4
:060B2F000461000000005B
:0A0D2400E4F564F563F562F5612261
:100CBD00AF64AE63AD62AC61EF2401F564E43EF563
:0A0CCD0063E43DF562E43CF56122AA
:090D2E00AF64AE63AD62AC61225A
:100CA1008F578E568D558C54120D2E120104AF574D
:0C0CB100AE56AD55AC5490000402011E7C
:100B99008B548A5589569000041200D4120142C31D
:100BA900E5649BFBE5639AFAE56299F9E56198F8D2
:100BB900C31200C3E440047F018001FFFEFDFC2253
:10086C00020003E493A3F8E493A34003F68001F29F
:10087C0008DFF48029E493A3F85407240CC8C3338D
:10088C00C4540F4420C8834004F456800146F6DF5C
:10089C00E4800B0102040810204080900B00E47EE1
:1008AC00019360BCA3FF543F30E509541FFEE49351
:1008BC00A360010ECF54C025E060A840B8E493A318
:1008CC00FAE493A3F8E493A3C8C582C8CAC583CA43
:1008DC00F0A3C8C582C8CAC583CADFE9DEE780BEFB
:010B350000BF
:10002E00BB010689828A83E0225002E722BBFE02D0
:09003E00E32289828A83E4932203
:10004700BB010CE58229F582E5833AF583E022506E
:1000570006E92582F8E622BBFE06E92582F8E222B8
:0D006700E58229F582E5833AF583E49322D2
:10007400E88FF0A4CC8BF0A42CFCE98EF0A42CFC2B
:100084008AF0EDA42CFCEA8EF0A4CDA8F08BF0A4A9
:100094002DCC3825F0FDE98FF0A42CCD35F0FCEB08
:1000A4008EF0A4FEA9F0EB8FF0A4CFC5F02ECD39CD
:0F00B400FEE43CFCEAA42DCE35F0FDE43CFC223A
:100A4400C2D5E830E70FB2D5E4C39BFBE49AFAE4DD
:100A540099F9E498F8EC30E717B2D5120A7A120142
:100A6400FDE4C39BFBE49AFAE499F9E498F8800363
:100A74001201FD30D50DE4C39FFFE49EFEE49DFD0D
:040A8400E49CFC22D0
:1000C300EB9FF5F0EA9E42F0E99D42F0E89C45F093
:0100D300220A
:1000D400BB010DE58229F582E5833AF58302029B93
:1000E4005007E92582F802028FBBFE07E92582F852
:1000F4000202A7E58229F582E5833AF5830202B379
:10010400BB010789828A830203055005E9F80202CC
:0A011400F9BBFE05E9F80203112211
:10011E00BB010DE58229F582E5833AF583020305DD
:10012E005007E92582F80202F9BBFE07E92582F89D
:04013E000203112285
:10014200BB010789828A830202D05005E9F80202C4
:10015200C3BBFE05E9F80202DC89828A830202E956
:10016200D083D082F8E4937012740193700DA3A32C
:1001720093F8740193F5828883E473740293B5F063
:0D018200067403936860E9A3A3A3A380D8CB
:06018F008A838982E473FB
:10019500EF4E6012EF60010EEDBB010B89828A8381
:1001A500F0A3DFFCDEFA2289F05007F709DFFCA98E
:0C01B500F022BBFEFCF309DFFCA9F022E5
:1001C10075F008758200EF2FFFEE33FECD33CDCCF5
:1001D10033CCC58233C5829BED9AEC99E582984078
:1001E1000CF582EE9BFEED9AFDEC99FC0FD5F0D655
:1001F100E4CEFBE4CDFAE4CCF9A88222B800C1B97F
:100201000059BA002DEC8BF084CFCECDFCE5F0CBBC
:10021100F97818EF2FFFEE33FEED33FDEC33FCEBF5
:1002210033FB10D703994004EB99FB0FD8E5E4F9B0
:10023100FA227818EF2FFFEE33FEED33FDEC33FC9D
:10024100C933C910D7059BE99A4007EC9BFCE99A91
:10025100F90FD8E0E4C9FAE4CCFB2275F010EF2FD6
:10026100FFEE33FEED33FDCC33CCC833C810D707D6
:100271009BEC9AE899400AED9BFDEC9AFCE899F811
:0E0281000FD5F0DAE4CDFBE4CCFAE4C8F922A4
:0C028F00E6FC08E6FD08E6FE08E6FF229B
:0C029B00E0FCA3E0FDA3E0FEA3E0FF22D6
:0C02A700E2FC08E2FD08E2FE08E2FF2293
:1002B300E493FC740193FD740293FE740393FF2291
:0D02C300E6FB08E6F908E6FA08E6CBF822AB
:0C02D000E0F8A3E0F9A3E0FAA3E0FB22B1
:0D02DC00E2FB08E2F908E2FA08E2CBF822A2
:1002E900E493F8740193F9740293FA740393FB226B
:0C02F900ECF608EDF608EEF608EFF62231
:0C030500ECF0A3EDF0A3EEF0A3EFF0226B
:0C031100ECF208EDF208EEF208EFF22228
:00000001FF
