:0300000002078272
:0C078200787FE4F6D8FD7581640207C999
:08000300120B75120A8B80FB41
:10045A008F53209003020501EF700C120590E508F6
:10046A007002F52C02050EAF537E00EF6403700391
:10047A0002051FEF64084E700302052BEF640D4E50
:10048A007003020537EF64124E7003020543EF64EE
:10049A00184E700302054FEF641A4E701EE529606C
:1004AA000302058F750801752901050FE50F700212
:1004BA00050E30E00302058802058CEF641F4E60CA
:1004CA000302058FE528600302058F750801752868
:1004DA0001050BE50B7002050A30E012E4F524F57C
:1004EA0025F50CF50D752A01752C41D2A322E4F5E8
:1004FA002A752C42C2A322E5537011120590E50811
:10050A007002F52CE4F52BF528F52922AF537E006D
:10051A00EF64037006F508752C0222EF64084E702A
:10052A0006F508752C0322EF640D4E7006F5087562
:10053A002C0122EF64124E7006F508752C0422EF86
:10054A0064184E7006F508752C2022EF641C4E7054
:10055A0006F508752C0622EF64214E7006F508751B
:10056A002C0722EF64164E701CE5297018750801D5
:10057A00752901050FE50F7002050E30E004752C90
:06058A002122752C222243
:100B7500120C46120A587F807E251208D47F031274
:100B850009E7120C60120C107BFF7A04795A120CDB
:070B95003043CF40D2AF2234
:100A8B0043CF40120BF97B007A007914120ABBECAE
:100A9B004D4E4F601A7B007A0079147F287E007DC3
:100AAB00007C00120BC3AB2C7D557FFF120AEB228F
:03000B000206AD3D
:1006AD00C0E0C0F0C083C082C0D075D000C000C013
:1006BD0001C002C003C004C005C006C007758A9002
:1006CD00758CE8120BDFE50960080527E527700238
:1006DD000526D3E52794E8E5269403400E752600FC
:1006ED007527000513E51370020512D3E513940861
:1006FD00E5129407401A75120075130075260075E2
:10070D002700750900752C31C2A3751000751100F5
:10071D00E52A60080525E52570020524D3E5259415
:10072D00E8E5249403400E752400752500050DE5BC
:10073D000D7002050CD3E50D9408E50C9407401AD5
:10074D00752400752500750C00750D00752A007552
:10075D002C42C297750A00750B00D007D006D00544
:10076D00D004D003D002D001D000D0D0D082D0831D
:05077D00D0F0D0E032D5
:03001B00020021BF
:0100210032AC
:03002B0002001EB2
:03001E00C2CF321C
:1009AA00EFFD7C00D394037480948040037F01227E
:1009BA00ED4C700843918053927FFF22EFFD7C003B
:1009CA00640170084391015392FEFF22ED64024CC8
:0D09DA00700843A10853A2F7FF227F0122FD
:070C590012002EFF0209AAA0
:0209E7008F532C
:1009E900D3EF94037480948040037F0122E4F55D82
:1009F900E55DC395535016745E255DF8A65D745E7A
:100A0900255DF9E4FAFB120C59055D80E3E55D65A6
:080A19005360037F01227F00FE
:010A210022B2
:100A5800758E07438901758A90758CE8C28CD2A976
:100A6800D28C438920758B10758D10C28ED2ABD273
:100A78008EE4F5C9F5C875CB4475CA80C2CAD2AD33
:030A8800D2CA22AD
:1008D40075985043878053C8CF438E0253890F4382
:1008E4008920AB07AA06E4F9F8FF7E1B7DB7FC124A
:1008F4000966E47B10FAF9F8120966E47B02FAF956
:10090400F8120966E47B02FAF9F8120074EFF404B1
:09091400F58DC28ED28ED2AC2208
:0A0C3C008F99E54E60FCE4F54E22AE
:060B1A008B5A8A5B895C26
:100B2000E4F543C3E5439404748094805017AB5AB2
:100B3000AA5BA95C854382758300120047FF120CF3
:070B40003C054380DE7F004D
:010B4700228B
:060AEB008F538D548B5562
:100AF1007E007F047D007B007A0079561201958586
:100B01005356855457855558E55625572558F55957
:090B11007B007A007956020B1AF0
:0C000E00E55260FCE4F552859944AF44D3
:01001A0022C3
:0E0C2200E55030E7067550007F01227F00226A
:10091D0012000E8F4FE5505480703DE55030E609C2
:10092D00EF64FB703043508022E5506405700BE599
:10093D004FB5510443504022801B74452550F8A6F5
:10094D004F0550E5452546254725482549F551E5EF
:09095D004564A5600375500022F9
:10059000120C22EF70030206ACE548FEE5498E4CD2
:1005A000F54D7E007F077D007B007A0079451201C2
:1005B00095E54D854CF0120162060D010006120111
:1005C00001061701020630010406350105063A014D
:1005D00006063F01070644010806490109064E01C7
:1005E0000A061C010B0621010C0626010D062B0133
:1005F0000E06580200065302010696030006830306
:1006000001065F040106720402000006A7E4F52C4F
:100610008049752C048044752C01803F752C028024
:100620003A752C038035752C068030752C07802B8D
:10063000752C208026752C058021752C08801C7552
:100640002C0A8017752C138012752C14800D752CB4
:10065000158008752C218003752C2275080122E471
:10066000F524F525F50CF50D752A01752C41D2A35D
:100670008008E4F52A752C42C2A3750801F50A75B5
:100680000B0122E4F526F527F512F513750901751E
:100690002C30D2978008E4F509752C31C297750883
:0D06A00001F51075110122E4F508F52C227A
:03002300020B9C31
:100B9C00C0E0C0D075D000C000C007309905C29924
:100BAC00754E01309808C29875520112091DD00774
:070BBC00D000D0D0D0E032E0
:100A2200013AFF60280000000000000001020304F8
:100A320005060708090A0B0C0D0E0F1011121314EC
:0F0A420015161718191A1B1C1D1E1F2021222301
:10080E00E4F554F5557F0112087FEF700505557517
:10081E0054017F0212087FEF700505557554027F53
:10082E000312087FEF700505557554037F041208F7
:10083E007FEF700505557554047F0512087FEF7024
:10084E000505557554057F0612087FEF7005055591
:10085E007554067F0712087FEF700505557554070E
:10086E00D3E55594017480948040037554FFAF54C2
:01087E002257
:100C1000120B48E4F535FB7A00793BFFFEFDFC0240
:020C20000BC304
:10031D007B007A00793B120ABBEC4D4E4F70037F88
:10032D00FF227B007A00793B7FA07E007D007C0060
:10033D00120BC312080E8F53EFF470037FFF22E5EB
:10034D003514603014606C14700302040A240360C9
:10035D0003020454E5537002FF2285533A7B007A61
:10036D0000792D7FA07E007D007C00120BC37535BA
:10037D0001020457E53A655360030204547B007A89
:10038D0000792D120ABBEC4D4E4F70030204577BC2
:10039D00007A00792D7FA07E007D007C00120BC3BA
:1003AD00753502E53A75F005A42400F582E43400B4
:1003BD0002044FE53A65536012E4F535E53A75F000
:1003CD0005A42401F582E4340080777B007A00795E
:1003DD002D120ABBEC4D4E4F60707B007A00792DCB
:1003ED007FA07E007D007C00120BC3753503E53ABE
:1003FD0075F005A42402F582E434008045E53A65E4
:10040D00536012E4F535E53A75F005A42404F58240
:10041D00E43400802D7B007A00792D120ABBEC4D5F
:10042D004E4F60267B007A00792D7FA07E007D00E7
:10043D007C00120BC3E53A75F005A42403F582E4A4
:0C044D003400F583E0FF22E4F5357FFF6A
:010459002280
:0C0C3000EA494B60068B378A388939226C
:100BF90012031D8F36E53845394537600985398235
:070C090085388312019322DC
:10087F00EFFD7C0064017005A28033FF22ED64025E
:10088F004C7005A2A133FF22EFFD7C0064037005BD
:10089F00A28333FF22ED64044C7005A28233FF2242
:1008AF00EFFD7C0064057005A2A033FF22ED640606
:1008BF004C7005A28133FF22EF64077005A2A233AB
:0508CF00FF227FFF2263
:100B4800539AFE439B01539AFD439B02539AFB43DE
:100B58009B04539AF7439B0853A1FE43A20153A158
:0D0B6800FD43A20253A1FB43A2047F012222
:070C60005391FE43920122B3
:060A51000461000000003A
:0A0C4600E4F564F563F562F5612240
:100BDF00AF64AE63AD62AC61EF2401F564E43EF542
:0A0BEF0063E43DF562E43CF5612289
:090C5000AF64AE63AD62AC612239
:100BC3008F578E568D558C54120C50120104AF570B
:0C0BD300AE56AD55AC5490000402011E5B
:100ABB008B548A5589569000041200D4120142C3FC
:100ACB00E5649BFBE5639AFAE56299F9E56198F8B1
:100ADB00C31200C3E440047F018001FFFEFDFC2232
:10078E00020003E493A3F8E493A34003F68001F27E
:10079E0008DFF48029E493A3F85407240CC8C3336C
:1007AE00C4540F4420C8834004F456800146F6DF3B
:1007BE00E4800B0102040810204080900A22E47E9F
:1007CE00019360BCA3FF543F30E509541FFEE49330
:1007DE00A360010ECF54C025E060A840B8E493A3F7
:1007EE00FAE493A3F8E493A3C8C582C8CAC583CA22
:1007FE00F0A3C8C582C8CAC583CADFE9DEE780BEDA
:010A5700009E
:10002E00BB010689828A83E0225002E722BBFE02D0
:09003E00E32289828A83E4932203
:10004700BB010CE58229F582E5833AF583E022506E
:1000570006E92582F8E622BBFE06E92582F8E222B8
:0D006700E58229F582E5833AF583E49322D2
:10007400E88FF0A4CC8BF0A42CFCE98EF0A42CFC2B
:100084008AF0EDA42CFCEA8EF0A4CDA8F08BF0A4A9
:100094002DCC3825F0FDE98FF0A42CCD35F0FCEB08
:1000A4008EF0A4FEA9F0EB8FF0A4CFC5F02ECD39CD
:0F00B400FEE43CFCEAA42DCE35F0FDE43CFC223A
:10096600C2D5E830E70FB2D5E4C39BFBE49AFAE4BC
:1009760099F9E498F8EC30E717B2D512099C120100
:10098600FDE4C39BFBE49AFAE499F9E498F8800342
:100996001201FD30D50DE4C39FFFE49EFEE49DFDEC
:0409A600E49CFC22AF
:1000C300EB9FF5F0EA9E42F0E99D42F0E89C45F093
:0100D300220A
:1000D400BB010DE58229F582E5833AF58302029B93
:1000E4005007E92582F802028FBBFE07E92582F852
:1000F4000202A7E58229F582E5833AF5830202B379
:10010400BB010789828A830203055005E9F80202CC
:0A011400F9BBFE05E9F80203112211
:10011E00BB010DE58229F582E5833AF583020305DD
:10012E005007E92582F80202F9BBFE07E92582F89D
:04013E000203112285
:10014200BB010789828A830202D05005E9F80202C4
:10015200C3BBFE05E9F80202DC89828A830202E956
:10016200D083D082F8E4937012740193700DA3A32C
:1001720093F8740193F5828883E473740293B5F063
:0D018200067403936860E9A3A3A3A380D8CB
:06018F008A838982E473FB
:10019500EF4E6012EF60010EEDBB010B89828A8381
:1001A500F0A3DFFCDEFA2289F05007F709DFFCA98E
:0C01B500F022BBFEFCF309DFFCA9F022E5
:1001C10075F008758200EF2FFFEE33FECD33CDCCF5
:1001D10033CCC58233C5829BED9AEC99E582984078
:1001E1000CF582EE9BFEED9AFDEC99FC0FD5F0D655
:1001F100E4CEFBE4CDFAE4CCF9A88222B800C1B97F
:100201000059BA002DEC8BF084CFCECDFCE5F0CBBC
:10021100F97818EF2FFFEE33FEED33FDEC33FCEBF5
:1002210033FB10D703994004EB99FB0FD8E5E4F9B0
:10023100FA227818EF2FFFEE33FEED33FDEC33FC9D
:10024100C933C910D7059BE99A4007EC9BFCE99A91
:10025100F90FD8E0E4C9FAE4CCFB2275F010EF2FD6
:10026100FFEE33FEED33FDCC33CCC833C810D707D6
:100271009BEC9AE899400AED9BFDEC9AFCE899F811
:0E0281000FD5F0DAE4CDFBE4CCFAE4C8F922A4
:0C028F00E6FC08E6FD08E6FE08E6FF229B
:0C029B00E0FCA3E0FDA3E0FEA3E0FF22D6
:0C02A700E2FC08E2FD08E2FE08E2FF2293
:1002B300E493FC740193FD740293FE740393FF2291
:0D02C300E6FB08E6F908E6FA08E6CBF822AB
:0C02D000E0F8A3E0F9A3E0FAA3E0FB22B1
:0D02DC00E2FB08E2F908E2FA08E2CBF822A2
:1002E900E493F8740193F9740293FA740393FB226B
:0C02F900ECF608EDF608EEF608EFF62231
:0C030500ECF0A3EDF0A3EEF0A3EFF0226B
:0C031100ECF208EDF208EEF208EFF22228
:00000001FF
