:030000000208549F
:0C085400787FE4F6D8FD75816402089BF3
:08000300120C47120B5D80FB9B
:10031D008F532090030203FDEF700C1204E3E508E8
:10032D007002F52C02040AAF537E00EF64037003D4
:10033D00020427EF64084E700302041BEF640D4E98
:10034D00700302043FEF64124E7003020433EF6436
:10035D00184E700302044BEF641A4E7033E52B6098
:10036D00030204E2750801752B010511E5117002F8
:10037D00051030E012750901E4F512F513F526F5B7
:10038D0027752C30C29722E4F509752C31C29722BE
:10039D00EF641F4E7033E52860030204E275080117
:1003AD00752801050BE50B7002050A30E012E4F526
:1003BD0024F525F50CF50D752A01752C41D2A322D6
:1003CD00E4F52A752C42C2A322EF64164E60030297
:1003DD0004E2E52960030204E275080175290105AF
:1003ED000FE50F7002050E30E0030204DB0204DF9F
:1003FD00E55370111204E3E5087002F52CE4F52BBA
:10040D00F528F52922AF537E00EF64037006F50839
:10041D00752C0322EF64084E7006F508752C022228
:10042D00EF640D4E7006F508752C0422EF64124E24
:10043D007006F508752C0122EF64184E7006F5084C
:10044D00752C2022EF641A4E7033E52860030204E8
:10045D00E2750801752801050BE50B7002050A30E0
:10046D00E012E4F524F525F50CF50D752A01752C32
:10047D0041D29722E4F52A752C42C29722EF641FD0
:10048D004E7030E52B704E750801752B010511E589
:10049D00117002051030E012750901E4F512F51323
:1004AD00F526F527752C30C2A322E4F509752C31FC
:1004BD00C2A322EF64164E701CE529701875080151
:1004CD00752901050FE50F7002050E30E004752C3E
:0604DD002122752C2222F1
:100C4700120D18120B2A7F807E251209A67F031228
:100C57000AB9120D32120CE27BFF7A03791D120DCD
:070C67000243CF40D2AF228F
:100B5D0043CF40120CCB7B007A007914120B8DEC35
:100B6D004D4E4F601A7B007A0079147F287E007DF0
:100B7D00007C00120C95AB2C7D557FFF120BBD2216
:03000B0002077F6A
:10077F00C0E0C0F0C083C082C0D075D000C000C040
:10078F0001C002C003C004C005C006C007758A902F
:10079F00758CE8120CB1E50960080527E527700292
:1007AF000526D3E52794E8E5269403400E75260029
:1007BF007527000513E51370020512D3E513941086
:1007CF00E512940E401A7512007513007526007508
:1007DF002700750900752C31C2A375100075110023
:1007EF00E52A60080525E52570020524D3E5259443
:1007FF00E8E5249403400E752400752500050DE5EA
:10080F000D7002050CD3E50D9410E50C940E401AF3
:10081F00752400752500750C00750D00752A00757F
:10082F002C42C297750A00750B00D007D006D00571
:10083F00D004D003D002D001D000D0D0D082D0834A
:05084F00D0F0D0E03202
:03001B00020021BF
:0100210032AC
:03002B0002001EB2
:03001E00C2CF321C
:100A7C00EFFD7C00D394037480948040037F0122AB
:100A8C00ED4C700843918053927FFF22EFFD7C0068
:100A9C00640170084391015392FEFF22ED64024CF5
:0D0AAC00700843A10853A2F7FF227F01222A
:070D2B0012002EFF020A7CFA
:020AB9008F5359
:100ABB00D3EF94037480948040037F0122E4F55DAF
:100ACB00E55DC395535016745E255DF8A65D745EA7
:100ADB00255DF9E4FAFB120D2B055D80E3E55D6501
:080AEB005360037F01227F002C
:010AF30022E0
:100B2A00758E07438901758A90758CE8C28CD2A9A3
:100B3A00D28C438920758B10758D10C28ED2ABD2A0
:100B4A008EE4F5C9F5C875CB4475CA80C2CAD2AD60
:030B5A00D2CA22DA
:1009A60075985043878053C8CF438E0253890F43AF
:1009B6008920AB07AA06E4F9F8FF7E1B7DB7FC1277
:1009C6000A38E47B10FAF9F8120A38E47B02FAF9DD
:1009D600F8120A38E47B02FAF9F8120074EFF4040C
:0909E600F58DC28ED28ED2AC2236
:0A0D0E008F99E54E60FCE4F54E22DB
:060BEC008B5A8A5B895C54
:100BF200E4F543C3E5439404748094805017AB5AE0
:100C0200AA5BA95C854382758300120047FF120D1F
:070C12000E054380DE7F00A8
:010C190022B8
:060BBD008F538D548B558F
:100BC3007E007F047D007B007A00795612019585B3
:100BD3005356855457855558E55625572558F55985
:090BE3007B007A007956020BEC4C
:0C000E00E55260FCE4F552859944AF44D3
:01001A0022C3
:0E0CF400E55030E7067550007F01227F002298
:1009EF0012000E8F4FE5505480703DE55030E609F0
:1009FF00EF64FB703043508022E5506405700BE5C7
:100A0F004FB5510443504022801B74452550F8A622
:100A1F004F0550E5452546254725482549F551E51C
:090A2F004564A560037550002226
:1004E300120CF4EF7003020641E548FEE5498E4C19
:1004F300F54D7E007F077D007B007A007945120170
:1005030095E54D854CF0120162056001000565011A
:1005130001056A01020583010405880105058D01B2
:10052300060592010705970108059C010905A1012C
:100533000A056F010B0574010C0579010D057E0198
:100543000E05AB020005A60201061F030005F70313
:100553000105B2040105DA04020000063CE4F52CAF
:100563008049752C048044752C01803F752C0280D2
:100573003A752C038035752C068030752C07802B3B
:10058300752C208026752C058021752C08801C7500
:100593002C0A8017752C138012752C14800D752C62
:1005A300158008752C218003752C2275080122E41F
:1005B300309012F524F525F50CF50D752A01752CEF
:1005C30041D2A38026F524F525F50CF50D752A01F6
:1005D300752C41D2978014E4309009F52A752C428A
:1005E300C2A38007F52A752C42C297750801F50A44
:1005F300750B0122E4309012F526F527F512F51359
:10060300750901752C30D2978026F526F527F5124A
:10061300F513750901752C30D2A38014E4309009C9
:10062300F509752C31C2978007F509752C31C2A3E2
:0F063300750801F51075110122E4F508F52C2268
:03002300020C6E5E
:100C6E00C0E0C0D075D000C000C007309905C29951
:100C7E00754E01309808C2987552011209EFD007CF
:070C8E00D000D0D0D0E0320D
:100AF400013AFF6028000000000000000102030426
:100B040005060708090A0B0C0D0E0F101112131419
:0F0B140015161718191A1B1C1D1E1F202122232E
:1008E000E4F554F5557F01120951EF700505557572
:1008F00054017F02120951EF700505557554027FAE
:1009000003120951EF700505557554037F04120950
:1009100051EF700505557554047F05120951EF70AC
:100920000505557554057F06120951EF70050555EB
:100930007554067F07120951EF7005055575540768
:10094000D3E55594017480948040037554FFAF54EF
:010950002284
:100CE200120C1AE4F535FB7A00793BFFFEFDFC029B
:020CF2000C955F
:100642007B007A00793B120B8DEC4D4E4F70037F8D
:10065200FF227B007A00793B7F147E007D007C00C4
:10066200120C951208E08F53EFF470037FFF22E51E
:100672003514603014606C14700302072F24036079
:1006820003020779E5537002FF2285533A7B007A11
:1006920000792D7F147E007D007C00120C9575354B
:1006A2000102077CE53A655360030207797B007A11
:1006B20000792D120B8DEC4D4E4F700302077C7B9F
:1006C200007A00792D7F907E017D007C00120C95CE
:1006D200753502E53A75F005A42400F582E434008C
:1006E200020774E53A65536012E4F535E53A75F0B0
:1006F20005A42401F582E4340080777B007A007936
:100702002D120B8DEC4D4E4F60707B007A00792DCF
:100712007FD07E077D007C00120C95753503E53A8B
:1007220075F005A42402F582E434008045E53A65BB
:10073200536012E4F535E53A75F005A42404F58218
:10074200E43400802D7B007A00792D120B8DEC4D64
:100752004E4F60267B007A00792D7FD07E077D0088
:100762007C00120C95E53A75F005A42403F582E4A9
:0C0772003400F583E0FF22E4F5357FFF42
:01077E002258
:0C0D0200EA494B60068B378A3889392299
:100CCB001206428F36E5384539453760098539823A
:070CDB00853883120193220A
:10095100EFFD7C0064017005A28033FF22ED64028B
:100961004C7005A2A133FF22EFFD7C0064037005EA
:10097100A28333FF22ED64044C7005A28233FF226F
:10098100EFFD7C0064057005A2A033FF22ED640633
:100991004C7005A28133FF22EF64077005A2A233D8
:0509A100FF227FFF2290
:100C1A00539AFE439B01539AFD439B02539AFB430B
:100C2A009B04539AF7439B0853A1FE43A20153A185
:0D0C3A00FD43A20253A1FB43A2047F01224F
:070D32005391FE43920122E0
:060B230004610000000067
:0A0D1800E4F564F563F562F561226D
:100CB100AF64AE63AD62AC61EF2401F564E43EF56F
:0A0CC10063E43DF562E43CF56122B6
:090D2200AF64AE63AD62AC612266
:100C95008F578E568D558C54120D22120104AF5765
:0C0CA500AE56AD55AC5490000402011E88
:100B8D008B548A5589569000041200D4120142C329
:100B9D00E5649BFBE5639AFAE56299F9E56198F8DE
:100BAD00C31200C3E440047F018001FFFEFDFC225F
:10086000020003E493A3F8E493A34003F68001F2AB
:1008700008DFF48029E493A3F85407240CC8C33399
:10088000C4540F4420C8834004F456800146F6DF68
:10089000E4800B0102040810204080900AF4E47EFA
:1008A000019360BCA3FF543F30E509541FFEE4935D
:1008B000A360010ECF54C025E060A840B8E493A324
:1008C000FAE493A3F8E493A3C8C582C8CAC583CA4F
:1008D000F0A3C8C582C8CAC583CADFE9DEE780BE07
:010B290000CB
:10002E00BB010689828A83E0225002E722BBFE02D0
:09003E00E32289828A83E4932203
:10004700BB010CE58229F582E5833AF583E022506E
:1000570006E92582F8E622BBFE06E92582F8E222B8
:0D006700E58229F582E5833AF583E49322D2
:10007400E88FF0A4CC8BF0A42CFCE98EF0A42CFC2B
:100084008AF0EDA42CFCEA8EF0A4CDA8F08BF0A4A9
:100094002DCC3825F0FDE98FF0A42CCD35F0FCEB08
:1000A4008EF0A4FEA9F0EB8FF0A4CFC5F02ECD39CD
:0F00B400FEE43CFCEAA42DCE35F0FDE43CFC223A
:100A3800C2D5E830E70FB2D5E4C39BFBE49AFAE4E9
:100A480099F9E498F8EC30E717B2D5120A6E12015A
:100A5800FDE4C39BFBE49AFAE499F9E498F880036F
:100A68001201FD30D50DE4C39FFFE49EFEE49DFD19
:040A7800E49CFC22DC
:1000C300EB9FF5F0EA9E42F0E99D42F0E89C45F093
:0100D300220A
:1000D400BB010DE58229F582E5833AF58302029B93
:1000E4005007E92582F802028FBBFE07E92582F852
:1000F4000202A7E58229F582E5833AF5830202B379
:10010400BB010789828A830203055005E9F80202CC
:0A011400F9BBFE05E9F80203112211
:10011E00BB010DE58229F582E5833AF583020305DD
:10012E005007E92582F80202F9BBFE07E92582F89D
:04013E000203112285
:10014200BB010789828A830202D05005E9F80202C4
:10015200C3BBFE05E9F80202DC89828A830202E956
:10016200D083D082F8E4937012740193700DA3A32C
:1001720093F8740193F5828883E473740293B5F063
:0D018200067403936860E9A3A3A3A380D8CB
:06018F008A838982E473FB
:10019500EF4E6012EF60010EEDBB010B89828A8381
:1001A500F0A3DFFCDEFA2289F05007F709DFFCA98E
:0C01B500F022BBFEFCF309DFFCA9F022E5
:1001C10075F008758200EF2FFFEE33FECD33CDCCF5
:1001D10033CCC58233C5829BED9AEC99E582984078
:1001E1000CF582EE9BFEED9AFDEC99FC0FD5F0D655
:1001F100E4CEFBE4CDFAE4CCF9A88222B800C1B97F
:100201000059BA002DEC8BF084CFCECDFCE5F0CBBC
:10021100F97818EF2FFFEE33FEED33FDEC33FCEBF5
:1002210033FB10D703994004EB99FB0FD8E5E4F9B0
:10023100FA227818EF2FFFEE33FEED33FDEC33FC9D
:10024100C933C910D7059BE99A4007EC9BFCE99A91
:10025100F90FD8E0E4C9FAE4CCFB2275F010EF2FD6
:10026100FFEE33FEED33FDCC33CCC833C810D707D6
:100271009BEC9AE899400AED9BFDEC9AFCE899F811
:0E0281000FD5F0DAE4CDFBE4CCFAE4C8F922A4
:0C028F00E6FC08E6FD08E6FE08E6FF229B
:0C029B00E0FCA3E0FDA3E0FEA3E0FF22D6
:0C02A700E2FC08E2FD08E2FE08E2FF2293
:1002B300E493FC740193FD740293FE740393FF2291
:0D02C300E6FB08E6F908E6FA08E6CBF822AB
:0C02D000E0F8A3E0F9A3E0FAA3E0FB22B1
:0D02DC00E2FB08E2F908E2FA08E2CBF822A2
:1002E900E493F8740193F9740293FA740393FB226B
:0C02F900ECF608EDF608EEF608EFF62231
:0C030500ECF0A3EDF0A3EEF0A3EFF0226B
:0C031100ECF208EDF208EEF208EFF22228
:00000001FF
